:1000000009C017C015C065C013C012C011C010C010
:100010000FC00EC011241FBECFE9CDBF10E0A0E677
:10002000B0E001C01D92A336B107E1F796D09EC0A3
:10003000E7CF1F920F920FB60F9211248F938091EA
:100040006100880F80936100C09B05C080916100B2
:100050008160809361008091610087FF02C0C29A35
:1000600001C0C29812BE8F910F900FBE0F901F90CB
:100070001895AC0120E030E062EE74E026C080917B
:100080006000882311F4C39805C08091600081301E
:1000900041F4C39AC49A809160008F5F809360009E
:1000A0000FC080916000823019F4C39AC498F3CFD6
:1000B00080916000833021F4C398C498109260004E
:1000C000FB013197F1F72F5F3F4F24173507BCF243
:1000D00008951F920F920FB60F9211242F933F9302
:1000E0004F935F936F937F938F939F93AF93BF9340
:1000F000EF93FF939091610080916200981739F01F
:1001000084E190E0B6DF8091610080936200FF910E
:10011000EF91BF91AF919F918F917F916F915F917F
:100120004F913F912F910F900FBE0F901F901895F8
:10013000789485B78E7F85BF85B7826085BF8BB782
:1001400080648BBF089503C081E090E092DFB09996
:10015000FBCF80E991E08DDF0895BB9ABC9ABA9AF3
:10016000B898B998B898EFDFE3DFFFCFF894FFCFE6
:00000001FF
